:20000000E8440020A9C3000001C9011001C9011001C9011001C9011001C9011001C9011006
:1C00200001C9011001C9011001C9011001C9011001C9011001C901103FC9011089
:20003C002DE9F04FE24D05F108012846ADF15C0D0BF0A0FE05F138040021204600F09CFDD1
:20005C000126DC49EC6041F2883205F1D40000240094234601960BF0BBFC05F18007182214
:20007C0008233846214600F08BFD3846214600F08BFDB1464FF47A72CF4928611346CDF89A
:20009C00009005F1F800CDF804900BF0A1FC022747F23052C949009405F58E701346019762
:2000BC000BF096FC4FF0040AA0466422C449CDF8008005F5A0701346CDF804A00BF088FC41
:2000DC004FF08040214600F05FFFDFF87CB31F22062368605946102005F0FEFCDB4C667855
:2000FC002078AEB905F1180121620DF03DFB04F15406CDF80080024604F14400019004F183
:20011C001C030296D2490393A378102005F0E4FC5020ADF820008DF82D90ADF81E804FF43E
:20013C0048768DF82E804FF47A74ADF824804946ADF822600DF12D02ADF8264040F20530E3
:20015C0002F062FF40F2063039460DF11E0202F05BFF05F1B4024FF442701E2102F054FFBA
:20017C0005F1280240F20730072102F04DFF4FF4447049460DF12E0202F046FF40F2113016
:20019C00394608AA02F040FF40F2123039460DF1220202F039FF40F21330394609AA02F009
:2001BC0033FF4FF4457039460DF1260202F02CFF05F15400A749009042461523102005F088
:2001DC008BFC102059460622A02305F085FC102059460722A02305F07FFC10205946082228
:2001FC00A02305F079FC102059460922A02305F073FC8DF82F908DF830908DF831800DF1D8
:20021C002F008DF83290944C8DF833804FF480624B4600902146102005F05EFC0CA840F222
:20023C0002424B4600902146102005F055FC0DF131000090214640F203424B46102005F00D
:20025C004BFC0DF13200214640F206424B460090102005F041FC0DF1330021464FF48362E7
:20027C004B460090102005F037FCCD4910204FF0FF3205F031FCCB4910204FF0FF3205F068
:20029C002BFCCA4F102013230090C94AC649019705F022FCD14E95F800B0307880000EF0BD
:2002BC009BFDD24CCDF854800146E163002900F0D5804FF6FF700CF099FE307880000EF06D
:2002DC008BFD01462164002900F0C8804FF6FF700CF08CFE307880000EF07EFD0146616466
:2002FC00002900F0BB804FF6FF700CF07FFE307880000EF071FD0146A164002900F0AE803A
:20031C004FF6FF700CF072FE307880000EF064FD0146E164002900F0A1804FF6FF700CF0A4
:20033C0065FE307880000EF057FD01462165002900F094804FF6FF700CF058FE307880009C
:20035C000EF04AFD01466165002900F087804FF6FF700CF04BFE307880000EF03DFD01466F
:20037C00A16500297AD04FF6FF700CF03FFE307880000EF031FD0146E16500296ED04FF66E
:20039C00FF700CF033FE307880000EF025FD01462166002962D04FF6FF700CF027FE3078B7
:2003BC0080000EF019FD01466166002956D009E00802002099E90000F9E9000019EA0000B6
:2003DC0009EA00004FF6FF700CF010FE307880000EF002FD0146A16600293FD04FF6FF70F1
:2003FC000CF004FE307880000EF0F6FC0146E166002933D04FF6FF700CF0F8FD3078800044
:20041C000EF0EAFC0146216741B34FF6FF700CF0EDFD307880000EF0DFFC01466167E9B1D5
:20043C004FF6FF700CF0E2FD102004F17802BE490090642301915C49149205F04DFB84F8BE
:20045C0000B0C0B20EE0C046A9D1000088110020FBC40000199F00007D39000004F178019C
:20047C001491132068701328FDD0022748468DF8357003268DF8340053468DF83660B9492F
:20049C008DF8373004AF40460A6809793A600DAA397149460AF034FD484649460DF1350220
:2004BC000AF02EFD022049460DF136020AF028FD49460DF1370230460AF022FD50460521E4
:2004DC0004AA0AF01DFDB34905F11C000860B24905F13002102005F0FFFA28780DF044F9AD
:2004FC00AE490246102005F0F7FA28780DF03CF9AB490246102005F0EFFAAA49102005F057
:20051C00EBFA686841469FA30A460DF0A2FAA868A64A00214FF0FF3300F03AFB061CF6D0B9
:20053C00002006900BA906AA07A80CF0B1FE002840F08880BDF81C7001208046102F7AD119
:20055C0028789DF82C10884275D1069F38884FF6FF7181426FD03B78913B49D01F3B6AD1B5
:20057C00787816281CBF0020031C05D140460DF013FB8D4843460760286ADBB93979686843
:20059C007E2904D07F2922D13989ADA301E0397AAFA30091002205210DF05BFA17E0C04609
:2005BC005DDD000001E0000011D90000680301006C150020A0B94FF6FD70AD49AD4A009085
:2005DC000023102005F088FAC3B2286A43B1397907F1080000F0E0FA2DE0C046694F0020D3
:2005FC0040F002004FF00008286224E0CC0A002078780E3802D0801E19D01CE0B88842F2E3
:20061C000301814217D1B9680F78A7B9491C04A80A684968026004AF41603878A64904AAD0
:20063C0000F0FD003870102005F056FA03E00820002104F079FC069820B1B8F1000F01D007
:20065C000EF08EFBF00FC0F0BF80B7E0E868074600F0A6FA874208BF002702D087680CF0D1
:20067C00DFFC381C00F0AA803888401E00F0A080401E6BD0801E43D0001F2BD0083840F013
:20069C009A80286A800821D347480268F2B150881179083200F088FA8046B8F1160F04D004
:2006BC00B8F1040F01D00DF077FA286AB8F1000F0CD130F00200286208D16D496D4A4FF6C5
:2006DC00FD7001230090102005F006FA78680CF0A7FC70E07868007838B17D480090686883
:2006FC000421002297A30DF0B4F940F20E300AA906F01EF97648BDF8282096490023E1E7FE
:20071C007A68BB7869681078BBB1012B0ED0022B07D0032B18D1002808BF97A30ED09BA379
:20073C0009E088B99FA309E050030100002808BFA0A303D0A3A3009000E0A7A3084600227F
:20075C0002210DF086F97A681046C0E7B878D5F8048048B1801E2ED102200EA90BF0F4FD23
:20077C00A5A306E0DD03010000200EA90BF0ECFDA8A39DF8380004210022009040460DF021
:20079C0068F918E0424C45205065726970686572616C00C01418002015E2000051880110F8
:2007BC0031810110C5AB0010F42D0020070000C0B87804F001F938460CF032FCE86800F0CC
:2007DC00F7F900283FF442AF70080ED3A4480EF01BFB02200DF139010BF0B6FD28B903205C
:2007FC0001210DF139020AF08BFBB00808D3A3480EF00AFB042001210BF0C6F900201590BC
:20081C00F008FFF484AE1598A349824631F820004AF2A107C01B1A2800F25D81DFE800F06D
:20083C005A565452504E4A48464442403E3C3A38363432302E2C262422200EC0AE484AE07E
:20085C004D54552053697A653A20256400C046C046432056696F6C617465643A202564005E
:20087C00A64838E0AA4836E0AA4834E0AA4832E045BA00000DE50000A8482CE0A8482AE05D
:20089C00A84828E0A84826E0A84824E0A84822E0A84820E0A8481EE0A8481CE0A8481AE0B4
:2008BC00A84818E0A84816E0A84814E0A84812E0A84810E0A8480EE095B40010A7480AE098
:2008DC00A74808E0A74806E0A74804E0A74802E040E20100A64800880DF12A01002708803B
:2008FC0040F0F980E16E10916B49A76E1197666E1296636C1393206F0F90D4F860C0D4F8FB
:20091C005CB0D4F85890D4F85480D4F850E0226C2778E66CA36CE06B31F82A104AF2A10A3C
:20093C00A1EB0A01142900F2CD80DFE801F0C0B7AFA9A19B928C8680796BCBCBCBCBCBCBFB
:20095C005D1E15C050617373636F64653A20256400C046C0E1D20000BDF82A006085704920
:20097C0000976A4E0196606FA8E0BDF82A1021856C490F989FE0C046426F6E6420736176BB
:20099C0065207375636365737300C046426F6E642073617665206661696C65643A202564FD
:2009BC0000C046C0426F6E64696E6720737563636573730050616972696E672073756363E3
:2009DC006573730050616972696E67206661696C3A20256400C046C050616972696E672097
:2009FC0073746172746564004F49BDF82A00E084109E11960AE0C0464368617220333A2099
:200A1C00256400C04F49BDF82A002083119812900AE0C0464368617220313A20256400C0AA
:200A3C004949BDF82A00E082DDF848C003E04749BDF82A00A082E34603E04549BDF82A00FD
:200A5C006082D94603E04349BDF82A002082C84603E04149BDF82A00E081C64606E0C046D6
:200A7C00DC0200203D49BDF82A00A081764603E03B49BDF82A006081334605E0480300202A
:200A9C003849BDF82A0020810F9372E73649BDF82A00139AE08005E06C0300203349BDF82E
:200ABC002A00A080009719480190104606E0BDF82A1061802E490097144A0192149A642307
:200ADC0007F032FFBDF82A0000906868012100220BA30CF0BEFF1598401CC0B20F28159091
:200AFC00FFF615AD23480EF091F9042000210BF04BF8002015900AE5020B0020000B0020A1
:200B1C0056616C75653A20256400C04679C10000FE0A0020FC0A0020FA0A0020F80A002005
:200B3C00F60A0020F40A0020F20A0020F00A0020EE0A0020EC0A0020EA0A0020E80A0020D1
:200B5C00E60A0020E40A0020E20A0020E00A0020DE0A0020DC0A0020DA0A0020D80A002031
:200B7C00D60A0020D40A0020D20A0020D00A0020CE0A002048030020DFF800F0A1B60110D3
:200B9C00DFF800F0D9BF0110DFF800F02DB40110DFF800F0F99B0110DFF800F089840110BF
:200BBC00DFF800F019BD0110DFF800F0DDFE0010DFF800F04FBF01102DE9F84FD84CA17839
:200BDC00FF2904BF00200DF0E9FBA0780DF008FE044604F1680504F190062968086810B1F9
:200BFC000022E2830CE0A87B002804BFA97E002906D13078002801BF217F0129608CE08388
:200C1C002189E08B4118491C6181204600F09CF901281EBFC3480178012904D120890022C4
:200C3C00401CE28360814FF6FF77A87E01280DD1AA8B6189208900F08BF938B12189608956
:200C5C004A1C93B298421BD0A88B0FE03078012816D172886189208900F07AF980B1218963
:200C7C0060894A1C93B298420AD0708892B2904206D03818608180B200F06EF93F18E783B1
:200C9C0004F5967999F8040020B120890021401CE183608104F12E07A87E01283ED122892C
:200CBC00A88B521C92B2904238D1608104F18601204600F055F9A88C61896084002020779E
:200CDC00E083E0894118A181A88B218900F044F98046B988288C6A8C01FB0808E88C8A42AA
:200CFC0004BF3989884202BFA98CFB88994207D000090090AB8CA1795208002000F034F9DD
:200D1C00A87F3870688CB880A88CF880E88C3881204600F02DF90220A87601E0B7F8048013
:200D3C00B4F81EC02268804ED2F80CE00CF1010000FB08F340F6C41000FB03F18E44C2F886
:200D5C000CE03668DFF8E4E13678BEF80080784AB609032E11D1D67BF60748BF4FF000083D
:200D7C000BD408F101081FFA88F6012E12BF668AB9F8066006F2DC5600E0668A5E434FF4FA
:200D9C00C87AB6FBFAF6761C6661AEF80080A3614FF0180894F806A084F820C008FB0AFADD
:200DBC00DFF890C1DCF800E023680EF1080656F80A601E610EF1080694F806A008FB0AFA26
:200DDC00CDF800A0D3F80CB0D4F814A0ABEB0A0ADDF800B046F80BA094F806A008FB0AFA3A
:200DFC0056F80A609E600EF10C06A37908FB03F30EF10C0EF65C06F0F00646F002060EF860
:200E1C0003604FF0000ADCF800E0A6790EF1020308FB06F623F806A0474BA6791B687601C8
:200E3C0003F1140AD4F814B05AF806A00AEB4B0A03F1140B4BF806A0AD7E022D0CD1A57961
:200E5C006D0103F1140697F800A0765900FB0A6603F1140A4AF80560BD88D27BA779D60749
:200E7C0039D508FB07F70EF10806F259A2F5A862F2510EF10807A27908FB02F2BA5827684A
:200E9C00511A3961BA6003F11402A179490103F11407525802F5F6627A5003F11401A279B3
:200EBC0052018958C9F800106843244A156BA779296803F11C067F01401AA0F51670F0517B
:200EDC001F49A07903EB40100B78012B0EBF0122916A4A7811E003F114017F012A46C959CF
:200EFC004243A1F5E661A2F516729142DCD30821204600F041F801200FE0C272A179DCF8E9
:200F1C000000104A08FB01F108442168486007201070204600F034F80020BDE8F28F00BFBB
:200F3C00684E0020784F0020084F0020102E00205C4D0020804E0020844E002084040100D1
:200F5C00734F00206F4F0020DFF800F035440110DFF800F069860010DFF800F091860010B0
:200F7C00DFF800F099860010DFF800F049C70010DFF800F0B9860010DFF800F0A98500105D
:200F9C00DFF800F0498000102DE9F04106465FEA010808BFDFF8408010480078C8B1104CAD
:200FBC0007460025B54204D02068C0698047064209D02068406841460246204690470028DB
:200FDC0018BF201C06D17F1E04F10C0405F10105E8D10020BDE8F081730101008E03010077
:040FFC002C030100C1
:20100000B41200001810000015AB0110FDB301106DC00110FDAE011099B5011000000000F7
:08102000000000002D0000009B
:20102800B01200003C100000B1C00110A9BF011067C0011069B80110000000000000000035
:041048003000000074
:20104C00B012000060100000BDC00110CDB30110D9BD01106DB3011000000000000000005B
:04106C00310000004F
:2010700000000000E022002004000000000000000000000020000000E8C901103000000028
:2010900028100000E82200200400000000000000000000000C000000D8CA01101800000003
:2010B0004C100000F022002004000000000000000000000024000000F0CA01101800000087
:2010D00000000000F82200200400000000000000000000001000000018CA01102C00000093
:2010F0000010000008230020040000000000000000000000200000006CCA011024000000F6
:20111000FFFFFFFF102300200400000000000000000000002800000090CA011024000000B5
:20113000FFFFFFFF182300200400000000000000000000001400000008CB01101800000034
:20115000FFFFFFFF2023002004000000000000000000000058000000B4C901103400000002
:20117000FFFFFFFF282300200400000000000000000000001000000020CB011018000000D0
:20119000FFFFFFFF302300200400000000000000000000001C000000B4CA011024000000FD
:2011B000FFFFFFFF382300200400000000000000000000003800000044CA01102800000025
:2011D000FFFFFFFF402300200400000000000000000000005400000078C901103C0000009A
:0811F0000100000018040100D9
:0411F80001000000F2
:0411FC0000000E00E1
:0412000000000F00DB
:0412040032000000B4
:0412080001000000E1
:04120C00242000207A
:0412100000020000D8
:0412140000000000D6
:0412180001C90110F7
:04121C0000000000CE
:0412200000000000CA
:0412240008000000BE
:0412280000002200A0
:04122C00D01D0020B1
:0412300000000000BA
:0412340000000000B6
:0412380008000000AA
:04123C00C41F0020AB
:0412400000000000AA
:0412440000000000A6
:04124800080000009A
:04124C00000000009E
:04125000000000009A
:041254000000000096
:041258000000000092
:04125C00010000008D
:04126000CC1E002080
:041264000600000080
:041268000100000081
:04126C00381D002009
:04127000000000007A
:041274000000000076
:041278000002000070
:04127C00000000006E
:02128000290043
:02128200010069
:02128400250043
:02128600300036
:02128800310033
:02128A002D0035
:02128C0001005F
:01128E00015E
:081290000300000080030100CF
:0812980000000000000000004E
:0412A0000000010049
:0412A4000000030043
:0412A80013C401105A
:0412AC006BE70000EC
:0412B000B812000070
:0412B400B81200006C
:0412B8000000000032
:0412BC009822002054
:0412C000E7E800005B
:0412C4002000000006
:0412C800D40201004B
:0412CC0024010100F8
:0412D00029C101101F
:0412D400CBDC00006F
:0412D800ABE7000080
:0412DC00A1C7011095
:0412E000A3C701108F
:0412E4000000000006
:0412E800FB02010004
:0412EC00F4FE00000C
:0412F0000CFF0000EF
:0412F400DCFE00001C
:0212F8000200F2
:0212FA000900E9
:0212FC000100EF
:0212FE000000EE
:0113000001EB
:0413040075E8000088
:0413080099CF000079
:04130C0035DE0000CA
:0413100045D20000C2
:04131400D1CF000035
:0413180009C2000006
:04131C00E59C00004C
:041320006DEB000071
:041324007DB7000091
:0413280015C70110D4
:04132C0025C70110C0
:201330002DE9F84FDFF82485DFF82415DFF8246588F80000002008600821DFF81C050170B6
:201350000D21418040F222318180DFF810050660B77EDFF80C050770FF2FF17E417008BF0D
:20137000FF29327F8270737FC370B57F0571F67F467115D1FF2A08BFFF2B11D1FF2D08BFC2
:20139000FF2E0DD1DFF8DC140A7802704A7842708A788270CA78C2700A7902714979417131
:2013B000DFF8C41402780A70FF2542784A7082788A70C278CA7002790A714079DFF8AC2424
:2013D0004871DFF8AC14DFF8AC04057045708570C5700571457100200880DFF89C144E6BBE
:2013F000DFF898147078087031781170B078DFF890140870B1680879DFF88814421E0A70CE
:20141000F078DFF884140870F068DFF88014086008B90CF0C9FF3069DFF87444206008B954
:201430000CF0C2FF2068DFF86C7401688847216851F8042F38469047DFF85C04DFF85C1490
:201450003862DFF85C0478627069086008B90CF0ABFFB069DFF84C14086008B90CF0A4FF11
:20147000F069DFF84414086008B90CF09DFFDFF83CB4DFF83C649BF804000DF0DDFA3060DA
:2014900008B900F045B99BF80500DFF828740DF0D3FA386008B9306837E19BF80600DFF83F
:2014B00018440DF0C9FA206020B930680DF0D4FA38682AE19BF80700DFF800940DF0BCFAE1
:2014D000C9F8000038B930680DF0C6FA38680DF0C3FA206819E1DFF894130A789BF8000086
:2014F000DFF8DCA3921C504380B20DF0A5FACAF8080058B930680DF0AFFA38680DF0ACFA1B
:2015100020680DF0A9FAD9F80000FEE0D7480078002800F00281BBF80210DFF8A8B3484330
:2015300080B20DF089FACBF8040078B930680DF093FA38680DF090FA20680DF08DFAD9F8CB
:2015500000000DF089FADAF80800DEE0C74800780DF072FADC49086080B930680DF07CFAA2
:2015700038680DF079FAD9F800000DF075FADAF808000DF071FADBF80400C6E0BB480078D4
:20159000182148430DF058FAD04A1060B0B930680DF062FA38680DF05FFA20680DF05CFA73
:2015B000D9F800000DF058FADAF808000DF054FADBF804000DF050FAC348A5E0AB480078BD
:2015D00040010DF039FAC2490860D8B930680DF043FA38680DF040FA20680DF03DFAD9F850
:2015F00000000DF039FADAF808000DF035FADBF804000DF031FAB44800680DF02DFAB34922
:20161000086882E09948007800010DF015FAB1490860F0B930680DF01FFA38680DF01CFA16
:2016300020680DF019FAD9F800000DF015FADAF808000DF011FADBF804000DF00DFAA2487E
:2016500000680DF009FAA14908680DF005FAA0485AE08648007800010DF0EEF99E49086020
:2016700018BB30680DF0F8F938680DF0F5F920680DF0F2F9D9F800000DF0EEF9DAF8080077
:201690000DF0EAF9DBF804000DF0E6F98E4800680DF0E2F98D4908680DF0DEF98C4800683B
:2016B0000DF0DAF98B4908682FE070480078302148430DF0C1F9894A106070BB30680DF031
:2016D000CBF938680DF0C8F920680DF0C5F9D9F800000DF0C1F9DAF808000DF0BDF9DBF8AD
:2016F00004000DF0B9F9784800680DF0B5F9774908680DF0B1F9764800680DF0ADF97549F6
:2017100008680DF0A9F9744800680DF0A5F900200CF04AFE4FF4804191E0316801200871DF
:201730003068057331684D73306885733168CD7330680574002031684D743268D072A0229E
:201750003168487103213068C28001720720316848720020326890722821306841820121BA
:20177000C176002031684877326882F85E0001203168087732684B4E82F85D0039680871DB
:201790003868057339684D73386885733968CD7338680574002039684D743A68D072396827
:2017B00048713A6890724FF4207039680022C88008818A7401213A68D17421680D732268BB
:2017D000557321688D732268D57321680D740021226855742368D972012122681171002133
:2017F000236859712168C8800881002088722168887405202268D074394801688847316846
:20181000054608688047326852F8041F0020884719481D4BC16818780A88324902430A80E2
:20183000284631490A6890470C2130480DF0E6FD10480DF0DFFD0DF0D9FD4FF4005198F8BA
:201850000000BDE8F44F06F043BD00BF6E4F0020044F0020B63F0050604E0020084F002001
:201870002C4E0020E81200503C4E00207B4F00200C4F0020344E0020840401006D4F00205E
:201890006B4F0020724F00206C4F0020F04E0020F44E00207C4B002049EA0000F84E002062
:2018B00069EA0000FC4E0020F82D00208C220020104F0020144F0020184F00201C4F002034
:2018D000C42D0020684E0020004F0020804E0020844E0020884E00208C4E0020904E0020D4
:2018F000641B0020544F0020681B0020F84D00202DE9F04FD14C04F118012046ADF1340DA9
:201910000AF03EFA0026B0464FF6FF7001216670D34F208232463346CDF8008004F1A4002A
:20193000019139460AF05AF80221CDF800803246334604F1C800019139460AF04FF80425A9
:20195000CDF800803246334604F1EC00394601950AF044F804F1440A284610223146A070AB
:20197000504608F099FD04F1540B10225846314608F092FD04F11C09C9F8006004F10A07D0
:201990003E70E671267207206072CDF800A0DFF804A3022210200346514604F0A3F81020CB
:2019B00003225146CDF800B0034604F09BF810202A465146CDF80090134604F093F84FF073
:2019D000060B4FF003094FF0080A07F12A00079007F17900089007F11E00099007F15A0087
:2019F0000A9024370B9717E06078A28FE18FB4F84050B4F8423006280ED1ADF80A20ADF8F5
:201A10000C10ADF80E50BA48ADF810300DF004FA012002A908F0BCFAA069B44A31464FF07E
:201A3000FF33FFF7BBF8071CF6D0304605900DF11A0105AA06A80BF031FC002840F0BE8192
:201A5000BDF818102078102940F0B4819DF81A10884240F0AF81059D29884FF6FF728A42A5
:201A700000F09D812B78A23B00F080812E3B40F0A181A978B046002900F03C81891E00F098
:201A90000B81491E012940F2DB80891E00F09B80491E6FD0491E5CD0083900F05781891EF1
:201AB00040F05A8194F83A30A888052BADF8080047D001208DF812008D480DF0ADF994F835
:201AD0003A0001281ED004281CD003280DD002280BD00598C188ADF80A100189ADF80C1090
:201AF0004189ADF80E10818927E0A08FE58FADF80A00B4F84030ADF80C50B4F84210ADF826
:201B10000E301AE0A08FE9888842D8BF081CADF80A002989E08F8842D8BF081CADF80C0052
:201B30006989B4F840008842D8BF081CADF80E00A989B4F84200884200DC0846ADF81000B6
:201B500001E08DF81260A949102002AA03F0CAFF02E1A7480DF060F96B78002B40F0FC8031
:201B7000E88860822889A0826889E08260480CF01BFFF1E0AA88B549102003F0B3FF0798AA
:201B900041465A4608F088FC6682A682E682A879207357480DF040F995480DF03DF94FF042
:201BB00001084FF6FF70237920824BB9A879082814BF04200520607040460CF02DFFCBE080
:201BD00084F80190C8E06B787BBB291D07980A6802608988818084F801B068892082E8892B
:201BF0006082288AA082688AE082E878E07294F83A00012818BF02280BD19A4910201F22F9
:201C100003F070FF4FF47A7180B2414338480BF0BFF868890423009091490193EA78102094
:201C30002D1D2B4603F05EFF99E06878312840F08A80E6700420607091E0C0468811002023
:201C50006B78002B7FD1A878E1896278032814D0E078257931B9012814BF2671E67007E0F3
:201C700029EA0000054303D07F480BF091F86278072ADFD184F801B071E0062A07D0E5783E
:201C9000002D08BF84F8019069D00220D3E70720D1E7C046F7E100006B78002B53D1EB78CC
:201CB000617893B902291DD007291BD0062902D12079012816D1032914D06B480CF074FEE0
:201CD00080B901200CF0A8FE0CE00BF053FD0246A07962490090089843460190102003F048
:201CF00001FF68706D78002D2DD135E007000080501200206B7833BB5C4857490090022205
:201D10001020034603F0EEFE59484A46524900901020034603F0E6FEED1C09982968016013
:201D3000A98801238180207863700BF023FD024601230A9D6079494900901020019503F0F0
:201D5000D1FEC0B258B184F801A008E0AA8841491020052303F0C6FEB8F1010F2AD1256A16
:201D700045B3296831B36078884723E06879132820D12889012808D1607B022805D11C483D
:201D90000DF04AF80BF0BCFA14E036491020052203F0A8FE81B216480AF0FAFF0AE0688882
:201DB000C00B07D3334804222B4900901346102003F098FE059808B10CF0D8FF2579E07898
:201DD000790830D355EA00032DD0204600788DB9E179257A8DF808100B9A8DF80950136878
:201DF0000DF10A052B609288AA8005E005160110741200208DF80890617A8DF81010A17A88
:201E10008DF811100BF0B6FC1149024602AB102003F068FE38B1256A84F801A01DB1296893
:201E300009B150468847B80803D31349304608F0AFF8F808FFF4F0AD607B401E3FF4D4ADEF
:201E5000401E7FF4E9AD0BF05BFAE5E541BD000059440110C1170110D970000009450110B4
:201E7000A17500009DE500002C120020CC110020DC110020A4110020C2110020BB482DE971
:201E9000F84F0025BA4CB849056094F8E200002800F06581012800F02F81B64E02283CD0EB
:201EB000032840F05C8151F8250CD4F8B8100029A0F5C060C4F8D400B8BF49420028B8BFBD
:201ED0004042814226DA4FF08057D7F8A4014568B4F8BC0030214FF47F4208230090304688
:201EF000A847D7F8A4014568B4F8C00004214FF4F802122300903046A847D7F8A401B4F8AA
:201F1000D070456820214FF440620A2330460097A847012584F8D8501CE151F8258C0CF0B8
:201F300030FE2F4600B901273946934F38680028FCD0B146012609F10409D9F82CA03E60B8
:201F500009B10CF024FECAF30720C4F8BC000CF018FEAA4600B9B2463B68002BFCD0D9F81F
:201F700000B0BAF1000F3E6001D00CF010FECBF38440C4F8C0000CF004FEAA4600B9B246D1
:201F90003B68002BFCD0D9F81C90BAF1000F3E6001D00CF0FCFDC9F38120C4F8D000B8F566
:201FB000C061C4F8B81000F09C8094F8D80068B9C4F8D410D4F8C000C4F8C800D4F8BC7033
:201FD000C4F8C470D4F8D030C4F8CC30D4F8D400D4F8BC30002854BF02226FF0010204F16F
:201FF000C8010F6800EB40008018421000EB927207EBA2000860D4F8C810C4F8C430002914
:202010001CDD1E293CDDD4F8CC0030B93429B4BF15391E21C4F8C81025E02A29BABFD4F848
:20203000C8000B381E20C4F8C800D4F8C4003F28B4BF401C3F20C4F8C4001FE0D4F8CC0087
:20205000032812D011F10B0FC6BFD4F8C8000B30301CC4F8C800D4F8C4000028C4BF401E8A
:20207000051CC4F8C450032508E011F1150FC6BFD4F8C8001530301CC4F8C800C4F8CC5023
:202090004FF08057D7F8A401B4F8C43030214FF47F424568374800930823A847D7F8A40164
:2020B00004214FF400321123456832480096A847B4F8C860D7F8A40104214FF4F8021223B7
:2020D00045682C480096A847D7F8A40120214FF440620A23B4F8CC60456826480096A8470B
:2020F00001E084F8D85040F2FF50404502D8801C40452FD2082030E051F8251C1F4F4BF2DC
:20211000F5204843060A3868C0F3814001280CD11B480068006880470AF044FC0CF03DFD7B
:202130003111C010484306EBE03694F8E50030B91448006820F07F403618760801E084F8D5
:20215000E5501148310C0660012741600F4D8760287808B90B2000E0052084F8E40003F04E
:2021700031FBBDE8F88FC0462D400C402C500C40481A002000A00C4000800C40B43F0050F3
:20219000EC010010102009403C600C40790201002DE9F04F09AFADF13C0D08900A9238886D
:2021B00009911E46ADF81800101C08BF002000F06C81017800274FF0010B401C4FF0FF39A6
:2021D000B846DA460A9058E1252940F04D810178401C0A902D2918BFADF8068004D101789D
:2021F000ADF806B0401C0A9030291CBF4246434604D10178401C5A465B460A902A29CDF89C
:2022100000804D4617D1049330680A9BCDF80890C01C20F00300001D306050F8044C1978BD
:20223000002C009403F101000A9018D5ADF806A06442009413E044460AE0600000EBC40057
:202250004018A0F130040A9801780094401C0A90302901DB3A29F0DBCDF8089004932E29FE
:2022700029D10178401C2A290A9011D13168CDF80880C91C21F00301091D316051F8045C70
:20229000002D48BF454601782B46401C0A9011E0454643460AE0680000EBC5004018A0F19F
:2022B00030050A9801782B46401C0A90302901DB3A29F0DB02930AB1224604926C2904D03D
:2022D0004C2918BFADF8048004D10178ADF804A0401C0A900BA8CDF80C800FAB079064290A
:2022F000059379D0692977D0BDF818C0752965D0782961D06F295DD0702946D0632936D0DC
:2023100073291AD00A98401E0A900998012812D961490C68B5F1FF3F03D0A84288BF6D1C49
:2023300000D8099D029508A80AA932466B46A0473F18039865E0454617E03068C01C20F0C8
:202350000300001D306050F8040CBCF1010F014608B94FA0014607910CF07AFA0390B5F129
:20237000FF3F4FD0A8424DD9039528464AE03068C01C20F00300001D306010F8040C8DF8DF
:202390002C005D46039558463CE0082035680490E81C20F00300001D306050F8041C08225D
:2023B00010230FA808F09CFB401E079040210170079823E0082302E0102300E00A23306846
:2023D000C01C20F00300001D306050F8041CAA42BCBF2A1C04920DE03068C01C20F0030032
:2023F000001D306050F8041CAA42BCBF2A1C04926FF009030FA808F073FB07900599081A96
:202410000390009C241ABDF8065000945DB906E008A8202109AA0BF04CFB7F1C009C641E05
:202430000094F5D50398401EB0F1FF3F03900FD1BDF8060001281CD10098401E009018D4A0
:2024500008A8202109AA0BF034FB00987F1CF4E70798017809AA08A80BF02BFB0798401CF9
:20247000079003987F1CDEE708A809AA0BF021FB7F1C0A980178401C0A9000297FF4A4AEA6
:20249000089808B14146017038460FB0BDE8F08F286E756C6C2900C0240401002DE9F84F28
:2024B0000C46E00788B00BD50CF08EFA28B100218160AC48006800B1804784F001004EE1E4
:2024D000A00710D5002006900021049000230290009005910393019101223C200CF082FFF6
:2024F00084F002003BE11D2560079F4E9F4F40F18A800020079083469D498878FF2804BF2B
:2025100000200BF051FF386890F8A0000CF06EF980463868C07A98F82691022818BF032802
:2025300008F5907A06D106F10D000CF057FF08B906F1070B514648460CF04CFF88B3386846
:20255000807A002818BF012804D1314650460CF03DFF04E05246494630460CF033FFFF2859
:2025700034D005FB00F906EB090506225146E81D0CF048F816F8090040F00209E81D079061
:2025900006223868817E01F0010188F8261105F1010A386800F1140108F590700CF032F8F0
:2025B00014E0514648460CF009FF78B15246494630460CF007FFFF2808D006F10D0145439A
:2025D00048190CF00BFF08B149F0020908F12C004B4601780691418909090591B8F822205D
:2025F000079904920122C088029140080390CDF804B0CDF800A0002098F806100CF0F2FE2C
:2026100084F00400ABE0200610D5002006900021049000230290009005910393019101220B
:202630003B200CF0DFFE84F0800098E0E0043BD5F11D06F10D000CF0BDFE386841790129A9
:2026500023D1017A012918BF04291ED1C17A022918BF032919D1817E00F1140230460CF013
:20267000B1FEFF2811D04543354405F10D000CF0B5FE50B9E91D05F10D000CF09BFE386899
:202690000622E91D14300BF0BDFF3A493A484A6800784FF4805109F0C3FE10B18E2007F09E
:2026B000FFFD84F480505AE0A00505D50CF069FA324901200860FEE7610504D506F0BBFDD8
:2026D00084F480604BE0600405D5812007F0E8FD84F4804043E0A00440D5294D286810B1D1
:2026F00000200BF061FE274E4FF0FF3028600CF05DFE3168244D51F8202F684690472348FC
:20271000416A826A036B0091019221490291C16A0A68016AADF8101003921978002904BFA4
:202730005868002805D19A68002A04BFD868002806D02970596869609868A860D868E860EB
:2027500029463568134A2E6813486B46B0471349086003F08FFA84F4005000E0002009B0A6
:20277000BDE8F08F204F0020AC450020104F0020684E0020784E00206E4F0020FC0020430E
:20279000044F0020F04E002068450020081E0020C9E900002C4D0020E82C0020EC4E00206C
:2027B0002DE9F84FB34D686884B0019020B905B0BDE8F04F0CF0F6BD0178DFF8BC82AF4E6B
:2027D000DFF8BC92DFF8BCA201291CBF0229042946F2A81741F64C5B05D0402918BF80299F
:2027F00000F097803DE10CF009FA0028FAD00198007804F00FF80090446814B900200BF083
:20281000D3FD9AF8010000285DD001F0F1FC0BF0EDFF02900168009801914F6808F03AFA23
:20283000022827D000990A78012ADBD1964B19680A7A19F80230337018B90CF0AFFD584494
:20285000A0602069C17E01F0EF01C1762069C17E41F08001C1762069C17E01F0F00141F0FC
:202870000201C1768948B96841182069C161012100989DE0019886490278802A12D1082347
:2028900033700878012803D09AF80110012903DD39690120C87210E0D8F828003A6901785B
:2028B000D1720AE0072030700978386901290EBF0122D8F828104A78C272029881790198AD
:2028D0008AF80210C8E0009800288BD00199009A0078914205D101281CBF00200BF064FDBC
:2028F00015E0012840F0BD80674801680A7A19F8020030700CF052FD3918A0680CF04AFD07
:2029100018B90CF04BFD5844A0600120A8700098A2E09AF8010000287AD001F069FC0BF04D
:2029300065FF04462068029047689AF802000BF05DFF03900CF068F910F0070F3DD0A878F2
:2029500003F068FF0190416801980091029908F0A1F9022831D001990A78012A2AD14A4B7A
:2029700019680A7A19F80230337028B90CF016FD83440098C0F808B000990869C17E01F063
:20299000EF01C17600980069C17E41F08001C17600980069C17E01F0F00141F00201C1764A
:2029B000009AB968394841181069C16101210198A97051E000200BF0F7FC0398A04225D052
:2029D000029833490278802A12D1082333700878012803D09AF80110012903DD3969012010
:2029F000C87210E0D8F828003A690178D1720AE0072030700978386901290EBF0122D8F889
:202A100028104A78C272A0798AF80200029823E00CF0FAF810F0070F29D0A87803F0FAFE36
:202A300004462078D4F80480012820D116490A68107A19F8001031700CF0B0FC3918D8F854
:202A500008000CF0A7FC20B90CF0A8FC5844C8F808000120A870204605B0BDE8F04F05F0B5
:202A7000F5BC05B0BDE8F04F00200BF09DBC05B0BDE8F08FC42D0020840401006F4F002037
:202A9000289A0110684E0020104F0020F0D8FFFF734F00202DE9FE4F0F469C4C0168E1620A
:202AB00041688068E0609A48A16080479948E16A0160A168DFF87CB24160E168DFF870823D
:202AD00081609549002FA246C1606AD03D68E8788DF8080028798DF8090002A80CF056FCFC
:202AF000A86808B18D490160E86808B18C4901608C4C287820706878BE686070A878B2686F
:202B1000A0703178A2607368E1702E696360EA6926627968E2620868E06068697B6860623E
:202B3000A8699E68A062286A20631EB900200BF03BFC00E066617868C06818B900200BF093
:202B500033FC00E0A0617868006918B900200BF02BFC00E0E0617868406818B900200BF064
:202B700023FC00E0206128692062F86881680E6806B96E4E6C494FF001094E60C66881F825
:202B900001902EB900200BF00FFCF868454601E045462E6000685C46FE68A0617068E06118
:202BB00006E000200BF000FC4FF001095C464546286861494668621C04F114035020B047B9
:202BD00010B1286880688047DAF8080080475C4F0026834669467E7058483E700422206118
:202BF00030460AF0A5FB0098B0F5801F0CD020B90AF0C8FE03F0C6FF08E009F017FE0BF0BB
:202C10001DFE0420788001E00AF0BCFE4D4FB0462868C7F808808069A660804778604A484F
:202C3000468080F8009014200BF006FFFF211422A0620CF0F9F8E01CFF2102220CF0F4F815
:202C500014200BF0F9FE414908600868142231460CF0EAF83046FEF763FB484609F056FFAC
:202C70003B480188FF2906D1022101807822001D31460CF0D9F803200CF084FB04200CF0DC
:202C90007DFB05200CF076FB06200CF06FFB072008F010FD2F4E0820307006F124000CF006
:202CB00061FB08F01FFF06F1360705200A213A460BF099FA38B14046C0F10901401C07F87B
:202CD000011B0A28F8DB3078102105F001FB2F68214909200DF10A0201AB7D68087010208C
:202CF0004146A847A06ADAF80C10E2690A270A309DF80A307F1E00F8013BF9D1921E5846E8
:202D1000E261884702F0D2FABDE8FE8F5C1B002041490010F844002014F40000B9D800007B
:202D30006DE50000081E0020C022002053B50000602300202C1F0020C9DD0000E5E5000063
:202D5000841D0020B82D002084110020082E0020F81B00209C1600201C2E00202DE9F84FC6
:202D7000DFF8ACA20F460446F80B80F00681A34EDFF87C82B80F80F0B780B80880F0AB80F6
:202D90003809C0F02C8108200BF01AFF002840F09D8080200BF014FF002840F09780684609
:202DB00006F04AFA012803D10098002800F08E8000250124E8B20BF00FFD48B1837A3BB141
:202DD000847290F9090004FA00F0C0B209F0C4FF6D1C032DEED345464FF0030905F1AC004D
:202DF00085F810900BF0ECFF8248002301680360814950F8082C98461A4640F8088C05F1C1
:202E100034000BF0EBFF3068006B8047A968401A010BA869C1F1FF3282422CBF08444FF01A
:202E3000FF30A861287F20B1E868A969B1EBC02F1ED90BF0BDF8414600B12146081C14D097
:202E50006F4840F60901018041464180427B64F303024273027B61F30302027341600BF0ED
:202E70008BFD418811F4406FFBD02C774146A9616448016821F0020141F400710160624963
:202E900041F8049C41F230028A600C6050268E600C604FF4CA628A600C6041F80C4C4446DE
:202EB000046002200AF0F6F8112005F071FA287818B9686838300BF09DFF687F18B16C7730
:202ED00005200AF0E7F8514868612C7408F0AAFA27F0080783E004F0E3FA45467435286828
:202EF00008B927F002077AE00BF070FFB3468146DBF85400016804208847D8B1207CC8B13C
:202F1000454608352868A8B10646DBF80000E568006B8047801BE060000BE060A84202D26E
:202F300040194008E06040F6C41181422CBFB0F5FA7FE16048460CF011FA09F0F1FE90B1CA
:202F5000A56920466FF4807100224FF00073A847464606F16C052868002808BF47F0020723
:202F700001D008F05FFA2046646900214FF080630A46A04727F0005731E00BF027FF51463B
:202F90000E6846B306F1280106C90A234FF0E0450B40154008BF002B1DD106F1280191E819
:202FB000300006F1280393E8060006F12803AA43A14383E806000CF0D1F9B16869B1002DA4
:202FD00008BF002C09D030692246B6F93C10B4682B46A04701E00CF0C1F927F4804727B154
:202FF0005046394650300BF00DFFBDE8F88FC046782300201410044069B600008C01001014
:20301000802D0020000004600C41044021820000F82300202DE9FC41A0F2013714468846BB
:20303000022F40F232819B4E9C493F1F0F2F04D9143F4CD0BF1E1CD011E0DFE817F0CF005D
:20305000C9000D01FA00C100B9002601AF00A700100010009D008F007F00740066002A28A1
:2030700080F21381B8F1020F40F00F818849238807E1B8F1010F40F00881F078012800F069
:203090000481324620781179107189B9002800F0FC805078012800F0B580042800F0B28046
:2030B000062800F0AF80052800F0AC80BDE8FC812078002840F0E9805078032800F0AF80DD
:2030D000072800F0AC80052840F0DF80A7E0B8F1010F40F0DA802078012840F0D68006F1D1
:2030F000EC000BF061FC002840F0CF803446002004F13A0106F04CFF002840F0C68004F137
:20311000C8000BF089FEBDE8FC81B8F1020F40F0BC8020880A28C0F2B880B0F5486F00F3FA
:20313000B4808E1C17E0B8F1020F40F0AE802088B0F5FA7F80F2A9800E460CE0B8F1020F37
:2031500040F0A38020880628C0F29F80B0F5486F00F39B803E363080BDE8FC81B8F1020FFB
:2031700040F0938020880628C0F28F80B0F5486F00F38B803C36EEE7B8F1010F40F08580D6
:203190002078062880F28180454E0EE0B8F1010F7BD12078042878DA0A3606E0B8F1010F6B
:2031B00073D12078082870DA09363070BDE8FC81B8F1010F69D12078042866DA0836F4E798
:2031D000B8F1010F61D1207804285EDCF61DECE7B8F1020F59D120880E36BCE7B8F1010FE4
:2031F00053D13079012850D032462078D178D07069B9002849D05078012803D0042818BFE6
:20321000052842D101200BF007FCBDE8FC81207800283AD15078022818BF052835D11078CE
:203230000AF0A8FA1C490246102002F05BFCBDE8FC8106F1830500211F22284607F02CF92F
:2032500021464246284606F02FF944463078B4710AF090FA002311E006F1640500211F2232
:20327000284607F019F921464246284606F01CF94446307874710AF07DFA012300940949CD
:2032900001950246102002F02DFCBDE8FC81C046A9D100008811002099450110C8110020B2
:2032B000C2110020094501102DE9F04F8246DAF800600C465FEA0208ADF11C0D14BF0021FD
:2032D0004FF0FF3106F1480083460BF0F2FA002818BF0B2040F00D8100258848F460B8F1A6
:2032F000010F057007D0657002200AF0B1F806200AF0AEF801E0012060702078012840F23D
:20331000AB80801E012868D9801E012833D9801E012800F2DF800BF059FD06904FF0805089
:2033300000F5EE77D0F8DC01A378466A009321782846062908BF0120019001200290A068B6
:20335000228AE1686368B047814606980CF006F8B9F1000F40F0C080B8F1000F02D00BF099
:2033700021F902E050460AF0A8F9002800F0A4803868806A2AE00BF029FD06904FF080507A
:2033900000F5EE77D0F8DC01012306680093A168A27860682478AC46042C08BF9C466346FE
:2033B000B047814606980BF0D9FFB9F1000F40F09380B8F1000F02D00BF0F4F802E05046E9
:2033D0000AF07BF9002877D03868406880474A49C1F8B0510D6081467EE00BF0F7FC06908E
:2033F0004FF0805000F5EE76D0F8DC01E38A87690093E0680190208B0290A0780390207D62
:2034100004900121059122782846022A08BF081CE1786268A368B847814606980BF09EFF07
:20343000B9F1000F58D1B8F1000F02D00BF0BAF802E050460AF041F900283DD03068006A80
:2034500080475FEA000947D13068C569A168E28A2369E078A847BEE70BF0B8FC06904FF0F4
:20347000805000F5EE76D0F8DC01E38AC7680093E0680190208B0290A0780390207D294672
:20349000049001200590257805B9014608466268A368E178B847814606980BF05FFFB9F14D
:2034B000000F19D1B8F1000F02D00BF07BF802E050460AF002F908B914201AE0306840696E
:2034D00080475FEA000907D1306802692169E078904780E74FF0FF39B8F1010F05D00220A1
:2034F00009F0D8FD062009F0D5FD58460BF082FC484607B0BDE8F08F504502401A2E00203E
:2035100010B50B7884074CBF43F0020303F0FD0304064CBF43F0800303F07F0304074CBF3C
:2035300043F0080303F0F70384064CBF43F0200303F0DF0310F0AA0F0B7004D0107840F0D0
:203550000C00107010BD18B9117801F0F301117010BD2DE9F8430D46002728780228144686
:203570001E4667D1696808784978DDF8208000EB012080B25FEA08011CBFB0F5285F0B2056
:203590005BD14FF42851401A08D0401E21D0401E2FD0401E25D0401E31D04BE0DDF82490EF
:2035B000E8680BF043FC80B2A0EB08024A45BCBFA0EB08001FFA80F909EB0800162806DA61
:2035D000A6F800904A46E86800EB08010DE00D2732E0E8680088022131802070000A607090
:2035F0002AE0062030800622E96820460BF00AF822E001203080E868017821701CE0E86886
:20361000B0B108213180018821700188090A61704188A1704188090AE1708188217181882D
:20363000090A6171C188A171C088000AE07103E0378001E0378001273846BDE8F2832DE98F
:20365000FC470F4600243978022970D1804678680A9E0178DFF8E0A09146427801EB0221C3
:2036700089B24FF42850091A1D4606D0491E29D0491E4ED0491E39D059E0F8680BF0D6FB2E
:2036900080B2B04204D3A819162803DB0D244FE007244DE0FB682A46494698190AF0B2FFCC
:2036B000AD19F868ADB2C5F11602002140190BF0BBFBDAF8000000281CBF0268002A37D00C
:2036D000002123E08EBB022DE0D199F8000099F80110FA6800EB01201080DAF80000002862
:2036F0001CBF0268002A23D001210FE0EEB9062DCCD1F868062249460AF084FFDAF800006A
:2037100000281CBF0268002A12D00321404690470EE056B9012DB9D199F80000002813BF5F
:203730000128F9680870802402E00B2400E001242046BDE8F6870000002E0020FEB5774875
:20375000774A0078774C784B78490D2840D8DFE800F0E307070707DBDB5EDB9A9AB8B8BF84
:20377000146041F2044572494C88AC421FBF4E8BAE424E8EAE4203D11D806E4810607AE068
:20379000002C6D4D1C804FF4A05639D0641E3CD0641E35D040F2FE37E41B1AD0241F012C80
:2037B0001DD94FF47F77E41B1BD04FF44067E41B0FD0A41E012C0CD9241F0AD0641E012C78
:2037D0000DD940F2F937E41B012C19D9241F08D09AE0022814BF1E80584D15604BE0584D59
:2037F000FBE7584803681C7A012C05D141F20240488048834886F0E74E804E834E86ECE740
:2038100000200AF0D1FD832082E08F2080E04E488178FF2954D0182041434C48146040F2CB
:2038300004450068841C645A1C80641B012C484B72D94FF47F75641B0FD04FF44065641B47
:20385000032C84BF641F012C0BD9A41E012C63D940F2FD35641B08D103E0801C41F2014474
:203870004452136004F0D2F805E000200AF09CFD85200BF06FFD03B0BDE8F0403548007850
:20389000012104F025BD40F204424888188090421CBF41F2084290423ED041F60402904227
:2038B00011D12D4C2D4A25682D4800680023CDE9002355F8086F2B4B0222B0472A49088070
:2038D000F7BD4888188000200AF06EFD85201FE04888188002280DD940F20442801A1BD01E
:2038F00040F6FC72801A05D0083815D04FF47F72801AE8D1887B801CC2B2B52AA8BF66201A
:20391000887300204880F7BD00200AF04DFD8420BDE8FE400BF01EBDF7BD00BF6F4F0020EE
:20393000204F0020A1ED0000504F0020CC4C0020204A0020EDAF0000615A0110B15401105B
:20395000755B0110104F0020684E0020804E0020313901106E4F0020F04E002002000080FB
:20397000EC4E002041D10000424F00207CB5894D144602460026A2F58062182A1AD8DFE8D7
:2039900012F0FE00F800F100E900E200DC00D500D0001900C500BE00B700AE00A300190025
:2039B000190080006F00680054004C00420039002C0024002A2880F28580022940F08280F6
:2039D000218809F0E9FB0646E1E0012940F0DE80002C00F0DB801135A6E0102940F0D6808A
:2039F000002C00F0D38028465030102221460AF009FECCE0012940F0C980002C00F0C6800F
:203A100029468D1D90E0262940F0C080002C00F0BD8005F160002622E8E7012940F0B680F8
:203A3000002C00F0B3806D1D7EE0602900D13CB9012940F0AB80002C00F0A8800D3573E092
:203A500005F18600214660220AF0DCFD012068739DE0012940F09A8020780BF077FC96E0B5
:203A7000012940F093802078022800F38F800C3528702078022814BF301C01200BF062FCD1
:203A900085E0072940F08280611C684606220AF0B5FC20786946324605F0F4F804460A2C31
:203AB00010DA0BF04BFC38B9204602F0D9FF0AF0C9F808F017F86AE02A46012002F12C05E8
:203AD000285564E0022662E001295FD1A87B21780028A9735BD12078012858D1E9E7012941
:203AF00054D12478072C51DB102C4FDC0B3537E001294BD124780A2C48DA093530E0012926
:203B100044D12478022C41DA083529E000293DD10BF014FC10B90AF015FEC8E701240F3525
:203B30001EE0012932D10A35247819E001292DD12478022C2ADAED1D12E0102926D12B46E3
:203B500003F1400051E7012920D12478022C1DDA2D1D05E0012919D12478042C16DCED1C03
:203B70002C7014E0012911D12478022C0EDAAD1CF6E702290AD120881435288007E0012991
:203B900004D12478022CD8BF6D1CE9DD182630467CBDC0469C1600202DE9FE4F05467B485A
:203BB000002400680094C00905D37948007810B9202009F00BFB012D40F0E280DFF80092CA
:203BD000D9F8DC00012840F0D8800220C9F8DC000AF0AEF9012009F0F9FA5FEA000805D0E4
:203BF0000120C9F8DC000AF0B3F9CBE00BF006F9A34602906748684DC0F800B0A86A0168EA
:203C100001208847012804D1584607F079F8012000906248624FC0F800B0386811200AF061
:203C3000C9FF00B1012410200AF0C4FF08B144F002040F200AF0BEFF08B144F004040B20F0
:203C50000AF0B8FF20B12868564E016B308888470A200AF0AFFF20B12868534E016B3088B3
:203C700088475248012606602868816944F0200088474F4806600AF097FF00F00101019190
:203C9000400814D2286A81684A4888478246BAF1040FF7D0BAF1010F04D1286A4268454864
:203CB000032190474449086820F003000860584600F088F82B683868986B804701980128B4
:203CD0000CD0BAF1010F04D1286A42683948314690473949086840F0030008602F480660F3
:203CF00028684169204688470B200AF063FF20B128682C4BC16A188888470A200AF05AFFCF
:203D100020B12868284BC16A18888847274806600322C9F8DC20264BC3F800B02868416B56
:203D3000204688470128F9D13868042009F04EFA0446184806603868144800688009FBD37B
:203D50000098012802D1304606F0DAFF0AF01FFF082009F03BFA07460298C9F8DC600BF02D
:203D7000E9FA1648008806F0A3FD0AF0F1F857EA040018BF4FF0FF3804E06FF0040801E02F
:203D90006FF001084046BDE8FE8FC04614100940301B00200C400940B80100100002224350
:203DB0002C200940BEFE0000BAFE00002820086080010443004003402422084074020100EA
:203DD000481A00202DE9F84FDFF804B20746ABF13500DFF8F0810068800880F0E280754882
:203DF0000068006880477E490831D1F8009000254FEA29715FEA995201F101010AD2C0F116
:203E10003E0210F10A0F4FEAE202D8BF08229142B8BF111C684BD3F87C21C2F30462162A6D
:203E3000A8BF203A1B68C3F30443162BA8BF203B9A465218162A05DA12F10A0FB8BF6FF0D3
:203E5000090200E015225D4B5D4E02F01F0141F4F8511980316811F0030F18BF0125C9083A
:203E700028BF45F002050FB145F00405434693F90710411A052904DA9979A94208BF998899
:203E90006FD0DFF844E10F28A0F10F0829DB08EB0011A1F1F0084FEA28210091072984BFE0
:203EB00007210091062988BF06215EF821600424774604EB81043C594FEA950CA41BEE0848
:203ED00004F0FF0124BFC4F3072631446F08AE0824BFC4F3074631446E0828BF01EB14615B
:203EF00004E000214FEA950C6F080091009C5EF824E05FEA5C060EF0FF0424BFCEF3072658
:203F100034447E0824BFCEF3074634446E0828BF04EB1E64009E89B2A8EB0626714380315F
:203F300004EB1124AAEB02010029D8BF0121342209F0FF074A4391B24FF6FF727943B1FB90
:203F5000F4F18A4238BF111C802889B2998005DA10F1800FB8BF6FF07F0000E07F20D871F4
:203F70009D711A4800681F2918604FF0000008D340F2FF128A4206D24908401C8A42FBD351
:203F900001E01F219980134F0F39090940EAC10047EA0001CBF8FB1F0026CBF8FF6FBDE825
:203FB000F88F0D490D4F434608200F609B1D1870BDE8F88FEC0100103C1100506E6208407A
:203FD00024220840EC2D00209C130050082009403500094000E7A48030100940FDFDA400EA
:203FF000AC3F00502DE9F04F044672488E46016894461F46BEF1000FADF13C0D4DD0BCF132
:20401000000F4AD09EF8002001209040014244D0BCF80000B0F5C15F32D1DCF81400DCF831
:204030001860654BDCF81C50DFF890A10B904FF003080DF128090C9618680D95C0F3036B07
:2040500059F8046FCEB10021351F05200B4655F8042FB2F1FF3F10D0924506D0401E01F1E4
:20407000040103F10103F2D107E0052B05DA705820F4702040EA0B407050B8F10108DFD177
:20409000C4F804E0C4F808C00AF0A0FE4C4D8046287820B140460BF061F9002087E002F030
:2040B0008FFA4849086840F00200086007A80AF073FC002605F1D00007AA4349099608F0F4
:2040D000ADFC424905F5827007AA08F0A7FC07A80AF022FCFF20192107AB3D4A089005F17D
:2040F000340008F003FC3B4A05F150001A2107AB08F0FCFB3849324605F18800134607F017
:20411000C7FD3649324605F1AC00134607F0C0FD334A05F120000421334609F0F3FC0E20DE
:2041300004F04EFA05F174000AF02DFB05F16C000AF029FB2E740523EB60072085F89801D5
:204150002E77AE616E772849AE60264A69612B781670581C287040460BF000F9B1461FB97F
:2041700068460AF01BFB6F4638682060388A6082012060747B6813B940F6C4130646E360B8
:204190001A48A06126746061F86800B1A061B86800B160614946582204F1200006F07CF924
:2041B00004F13800494609F053FB6C6020460FB0BDE8F08FD4210840541300500200F844A5
:2041D0007823002000200940F5E40000497E000069B60000B5AE0000A1DF0000F5E2000032
:2041F0006DBF0000142E002021820000E39800002DE9FE4FDFF8F48198F8011011B90020C9
:204210000AF0D2F80BF0CAF807464FF0000907F6C4170026764D774C11E030460AF0E6FAB3
:20423000417951B12968827901F8092009F101015FFA81F939460BF079F8761CF6B2207878
:204250008642EADB98F80100814505D000200AF0ABF882200BF07EF898F80100012840F0DB
:20427000A680002601E0761CF6B22078864280F2988030460AF0BAFA074678790028F2D091
:204290002868B979027891421CBF00200AF08CF8B87984E02868C05D0AF0A8FA0068426896
:2042B000DAF808109068814204BF34467F1C00F08C808EE0296808780123F6B24FF4C072B5
:2042D00010E0D8F8047007F5AD7CCF5C02FB07F43CF804E002FB00F43CF80440A64538BFEF
:2042F00038465B1CB342ECDB06464FF6FF700BF019F88246F0B20AF079FA4FEA5A0100681E
:20431000446840F6C410414301F5A06000270091019015E0F0B20AF069FA01680A78802A8B
:2043300003D1DBF81030009A5A610978402906D131498079096801EB40110198C8617F1CF2
:204350004F4550DA2868C05D0246F1B29142F6D04FF4C071D8F804304A43991803F5AD7390
:20437000C9899A5A4B08934202D2891A8945E6DA0AF03CFA0068D0F804B0A268DBF80810B1
:204390004FEA5A0040F6C413A1F6C41103FB00200BF000F80028BDD02868C05DC0B2BDE877
:2043B000FE8F00200AF000F882200AF0D3FF98F8011028680AF0B2FF286800780AF016FAF2
:2043D00000240168D1F804A00127661C4F45FFF661AFE4B2002C1CBFF0B200287FF46AAF9D
:2043F0002868067881E73046D8E700BF684E0020004F00207B4F0020844E00202DE9FE4FBF
:204410000E468246307AC10693461C464FF000090CD558460AF07EFF030000F0E9800A22FE
:204430003146504698475FEA00094DD13078DDF838800D9D0C9F02281AD170680178407868
:2044500001EB002189B24FF42052891A012910D9891E3AD0491E14D0FD397BD0491E00F0C5
:204470008280491E6ED0491E74D0491E00F09680ACE0002D2AD1F06801783980027841680C
:2044900088E0002D22D101203880F0680178217000217089401C80B20AF038FF398860B19E
:2044B0000278921C51183980418961704189090AA17002784168E01C6DE0091D39800422A8
:2044D0000021601C0AF0B0FC94E0002D67D1F0680588042139802570290A617028460DF1E8
:2044F00002010AF013FF5FEA000821D0D8F80C50BDF802204FF6FF766B4631460AF002FF7B
:2045100050B998F80030D8F804203C4802210AF0F5FE08B9ADF80060287802280AD16968FE
:204530000222201D0AF06EF83888801C388001E0ADF80050BDF80000A070BDF80000000A3C
:20455000E07057E0002D2AD1F068016850460AF0D3F902E01DBBF068008802213980207079
:20457000000A607046E0F0680AF060FC80B2A842B8BF4FF007093DDB854208BF002205D0FE
:2045900008EB05028242B4BF4246421B3A8092B2F068411920460AF035F82BE015B14FF0A8
:2045B0000B0927E0F0680721398001782170417861704188A1704188090AE17001792171F0
:2045D000C1886171C088000AA07113E058460AF091FE5FEA00090BD00F980290CDF8048084
:2045F00000953B46224631465046C847814601E04FF00E094846BDE8FE8F00BF380001005B
:204610002DE9F0410446764DA178A869ADF1180D891F00F0DE80C91E00F0C980491E5FD09D
:20463000491E48D0C91E3CD0481E40F0D580287A697AB8B96878002831D0A0880AF056FE98
:20465000071C00F0C980A07A40080FD3787968B1E168890A0AD2B91D01AA04F013FB0A2833
:2046700004D10321A0880AF03DFEB5E0287B022802D1A07A0009F4D3A088797904F108029C
:2046900001F068F9A869002800F0A6804368002B00F0A28000210A46A08898479CE0052167
:2046B000E0E7002800F098804368002B00F0948062780221F0E70AF08FF9002800F08C809F
:2046D000A86950B1076847B1206900906189227B637BE01C3C46A0477EE060890121C2E75C
:2046F00067784FF00008002F52D1A17949084FD3EF69002F4CD101A841460E220AF094FB18
:20471000A0880AF0F3FD071C66D0606940B97879B91D06228DF80A0001A809F073FF19E0D1
:204730006669307C062206F111018DF80A0001A809F068FF07F10C00B91D062209F062FFC9
:20475000B81D062206F1110109F05CFF307C40F002007871A1799DF81120C1F380001043C1
:204770008DF81100080905D39DF8110040F008008DF8110001A8214600F012FA28B92878A9
:20479000022103F0A5FD404627E0A8694FF0150810B3436803B3A088627801219847B8F187
:2047B000000F19D0A86943680321424674E7E078211D002204F066FA0A280DDA410001EBDC
:2047D000800004F10C0225300421C0B202F07CFC02E0A08807F0ACFA012006B0BDE8F0815C
:2047F0009C1600202DE9F04F754F1E46ADF1340D01914FEA960902923D680090710809F1D5
:20481000020221F0010105EB8200091D0390901805EB80000490501805EB8003801805938F
:2048300005EB8000079026F0030000F1080802EB080005EB800340180893801805EB8000E4
:204850000990C6F39C008000083002EB4000411805EB800305EB810B0A938918831805EB64
:204870008104404405EB8303C6F3990105EB80008900069038680B930A010021803205F0B6
:204890000BFE4849DFF820A109682846AAF1880290470746B94518BF6FF001007ED12846BC
:2048B0005546394605F1680290470198314609F04FFC002818BF012070D10298314609F0D8
:2048D00047FC002818BF022068D103980199A84704980299A847009881680598A847334B56
:2048F0000399059A20469946C847012802D1BD0066590EB1032051E020460021424605F08A
:20491000CBFD0499059A2046C847012801D166590EB1042042E0274B254D079803991E46CC
:204930002A46B047089804992A46B047079909980A46B0470A980999079AB0471E4D0B98EA
:2049500007992A46B04720460021282205F0A4FD1A4B0A990B9A20469946C847203520461D
:204970002A460146C847089958460A46B04706980021424605F090FDFDB25846002D0CBFCD
:204990000122FAB20021635C455CAB4218BF052004D1491C521EC9B2F5D100200DB0BDE861
:2049B000F08FC0468C4F0020B9DB0010C9DE0010601F0020F9E00010B0FF0000C9E6001016
:2049D000884F002070B5724C01466068491EADF1280D6BD0491E65D0891E48D0491E41D096
:2049F000491E04D0491E3AD0491E36D032E004F1D4000AF00FFA04F58E700AF00BFA65490C
:204A1000102001F06FF86449C5B201AB10206A1E01F068F848B9009560680221002240A39F
:204A300009F01DF80DF106000CE006AD40F21530294601F083FF6068022100223CA309F077
:204A50000EF82846646807F0EBF9032103460022204661E00221002221E038A300E039A318
:204A7000002258E0142009F09DF83CA30FE004F1D4000AF0D1F904F58E700AF0CDF904F5FF
:204A9000A0700AF0C9F9142009F08CF836A360680221002208F0E3FF6068032105220AF0BC
:204AB00064F83BE0022134A30446D0E74FF4417008A901F043FF9DF821608DF80560002577
:204AD0008DF808509DF822308DF807509DF824108DF806309DF820008DF80A109DF8252074
:204AF0008DF804009DF823608DF80B2001AB2B498DF809601A680A6058684860666808A875
:204B100007F08EF9034601212A46304608F0A7FF60681CA32A46022108F0A1FF0AB070BD7F
:204B30004E756D20436F6E6E733A20256400C046436F6E6E656374656400C0464572726FFA
:204B50007200C046436F6E6E6563746564204164766572746973696E6700C04654696D6505
:204B700064204F757400C046446973636F6E6E656374656400C046C0416476657274697388
:204B9000696E6700496E697469616C697A65640008020020F17F0110097F0110D714002002
:204BB0002DE9F04F714CDFF8C0A1E56988468146ADF1140D002D4AD1B9F1000F00F09280F6
:204BD000B8F1000F00F08E8008F0F2FE06460A2E23DAD8F814702674002F39D070001021DF
:204BF0006A4600EB86002330C0B209F0FCFA90B950460778FF211022684609F042FC50B932
:204C10003FB999F80600494600F001000AF066FB01E00120A074E56919E004F1E60B0A27A6
:204C300000265846FF21062209F02BFC68B97F1E0BF10E0B06F10106F3D1607C002804BFDC
:204C50000A2020744ED094F83660267400E0267C0A2E47DA002D35D170000E214A4600EB84
:204C700086002030C0B202F02FFA207C07F0E8F96846FF2110220AF0D7F8207C10216A4607
:204C90007030C0B202F020FA217C0E220801A0EB410000194946E63009F0B4FCD8F81420D9
:204CB0006AB15046007840B9107C02F11101002300F001000AF00EFB01E00120A074C4F848
:204CD0001C804CE0AA68002A3ED12A69002A2FD16A690ABBEA683AB9A07B08B108F030FC1F
:204CF00009F072FA01203BE07000102100EB86002430C0B202F0E8F9E769217CFA684800C1
:204D100000EB8100103225300421C0B202F0DCF9E1690020C86022E07000102100EB86007C
:204D30002330C0B202F0D0F9E1690020486116E070001C2100EB86002230C0B202F0C4F949
:204D5000E169002008610AE070001C2100EB86002130C0B202F0B8F9E16900208860002090
:204D700005B0BDE8F08FC0465A4F00209C16002066480178002900D170472DE9F843491E19
:204D9000032984B004D9891F012940F2BC80B4E05F4CDFF880912168DFF87C8108685F4EE5
:204DB00000F10805062205F1080102A809F02AFC0622A91C684609F025FC2878C1091D2792
:204DD00000F00F02032AC0F3801537D16079C0F3800081421ED12169062202A809F048F9F1
:204DF00000280AD0694628460AF0F4FA002804D0314668460AF0EAFAFF2879D04743D8F8D3
:204E10000000807AF519002818BF02280AD0012818BF03286CD1F25D691C48460AF056FA63
:204E3000102865D06B46EA1D294648460AF04AFA06226946E81D09F0E5FB59E000F00F0015
:204E5000052860D16079C0F38000814250D12169062202A809F00CF9002849D0694628463C
:204E70000AF0B8FA002843D0314668460AF0AEFAFF283DD04743D8F80000807AF5190028B6
:204E900018BF01280AD0022818BF032830D1F25D691C48460AF01AFA102829D040F20240E6
:204EB00007F0F8FD6B46EA1D294648460AF00AFA06226946E81D09F0A5FBD8F80010F05DA1
:204ED00088760622D8F80000691C143009F09AFB1348144A41F2044141804183418612489E
:204EF00001801249124808600121107803F0F0F921680A680020107105E0002009F054FA96
:204F100086200AF027FA05B0BDE8F0836F4F0020F44B0020CC470020104F0020AC450020F3
:204F3000204A00206E4F0020504F0020204F0020EDAF00007CB56D4D044668680E4628B9D6
:204F50004FF000400021FCF725F8686000213CA30A4608F084FD20463DA3801E08D0801EA6
:204F700061D0401E4CD0401E37D0401E22D00EE06868012E05D000210A4608F070FD37A34F
:204F900057E000210A4608F06AFD39A351E0686800210A4608F063FD6868022100223AA362
:204FB00008F05DFD01208DF803009DF803000028FBD17CBD686800210A4608F050FD6868CB
:204FD0000221002236A308F04AFD01208DF802009DF802000028FBD17CBD686800210A46B7
:204FF00008F03DFD68680221002232A308F037FD01208DF801009DF801000028FBD17CBDEF
:20501000686800210A4608F02AFD6868022100222DA308F024FD01208DF800009DF80000E7
:205030000028FBD17CBD686800210A4608F017FD29A368680221002208F011FD7CBDC046C0
:205050003E3E3E535441434B20415353455254002A2A2A4552524F522A2A2A003E3E2049B3
:205070004E5445524E414C204552524F522100C03E3E20494E5445524E414C204657204566
:2050900052524F522100C0463E3E2044454641554C54205350494E4C4F434B2100C046C089
:2050B0003E3E2057524F4E47204150492043414C4C2100C03E3E204943414C4C2054494D95
:2050D000454F55542100C0463E3E204943414C4C2041424F525421003E3E204F5554204F9F
:2050F00046204D454D4F52592100C046080200202DE9F0430546880FADF1140DC0F0C08036
:20511000614C201D006840688768C668406800B18047002F08BF002E08D009F049FB07B157
:20513000B84706B1B047594808F0D8FC584809F023FC584940F60A0CA1F800C0002048805F
:205150000A7B60F303020A7348604A7B4FF0010969F303024A73AB686E7C58801A88A2F602
:205170000202CAB141F21E07D21B15D041F6E677D21B012A20D85A7E012E60F382025A7624
:2051900006D01A8B22F47C7242F434721A8313E01A8B60F30912F9E75A7C012E60F3820245
:2051B0005A7405D01A8A22F47C7242F4347202E01A8A60F309121A82D5F80880687462464F
:2051D000464600E03E46776817B13B889A42F9D17160727B60F303027273E76E47B1FA6815
:2051F0001288ACF1070393421AD05B1C934217D02F8CB7B1686205F12002508095F82C30AE
:2052100060F3030385F82C3095F82D3069F3030385F82D304A604A7B60F303024A7300E0C2
:20523000A0601D4801688768C568009110226946406B019720F0784040F080500390174805
:20525000029504F031F909F0B3FA15486061607F68B91448006801684846884701280CD036
:20527000707B69F3030070730F4F676105E007F01DFA0028FBD009F0B9FD404609F07CFB40
:2052900005B0BDE8F083C046782300200100070601010E04802D00204C1300501800002199
:2052B0006D2D0000E0010010E5B800002DE9FE4F664D654C664F2868626A066904F1200357
:2052D00039460120B04710B1286880688047DFF89481DFF8809108F0A1FC5FEA000B03D097
:2052F00004F0D6FB4FF0FF3B002637E00098216910F8062CA0F10C07032A02D171B3884730
:205310002CE0A06A9DF805C00A213246401E10F8013F9C4506D0491E02F10102F7D14FF0A9
:20533000FF0A01E05FFA82FA2868BAF1FF0F00F1080011D0387907F0D3FDB979012904D0D3
:20535000022904BF0099887001E0009908700099504608F0ADFE01E0006880472868C3692E
:205370000DF105016A4601A898470028BED0D9F800007700C35B23B9761CF6B20A2EF8DBA4
:2053900022E00A2E20DAD8F808008047D9F80010002231F807A0CA53D8F80C1088472E4809
:2053B00050F8262026705146304690470646FF202070D8F808008047D9F800107A5A16432D
:2053D0007E52D8F80C10884708F028FC0746BB451AD0D8F8080007B9204FE169B94238BF9C
:2053F0000F1C804782462868016A206A8847626A286817491A4B521C6262C6683846B04799
:20541000D8F80C1050468847A7682968606914318FB9D9F800000A270026835B33B10969D9
:20543000606988472968D9F8000014317F1E06F10206F2D103E00969884729681431096853
:205450004FF0FF30884746E72C1F00206023002029CF0000082E0020AC0001008EC2F5285C
:205470004C1F00205C1B00202DE9F04FADF1240D079001F0A5F86048007808F043FC5F4DAE
:205490000024012806D90C3804D0401E0ED0401E09D006E009F002F8022804BF01210C1C35
:2054B00006D0696805E005211F2401E0032107246960534A1068C0F38150012806D152F80B
:2054D0000C0C0127020E07FA02F0044309F04CFA524AFF234018401E471C28607F1E02F8FD
:2054F000013BFBD1079A1268002702F0FF03FE2B20D0DDF81CC096463B4601260EF0FF0211
:20551000FF2A10D0904205D3914203D806FA02F2144201D002206CE017430EF0FF02DFF861
:20553000FCE00EF802305CF804EF5B1C0EF0FF02FE2AE5D1092003F043F807980121A8608C
:2055500005F1280008F084F905F19806A8464FF0010A4FF0040B0025A9460AFA05F004423B
:2055700016D1074204BF05F0FF0141F4C04104D02A480799405D51F82010224802F0D8F9D4
:20559000E8B24FF0FF3108F091FEC6F8009001E0C6F800B0D8F800006D1C361D8542DCD9A6
:2055B00004A809F0B9F9184C184A2078102104AB059008F10C0007F099F9684609F0ECF997
:2055D000CDF80C906A4660681149029008F1640007F024FA0F4951F80D0C20F4F85040F43A
:2055F000005041F80D0C0C4FC1F8FFAF4846C7F800A009B0BDE8F08F1B2E00203419002097
:20561000B43F0050007FC767A0030100D9E200007DC600000D300940080009407819002060
:205630002DE9F04F0746ADF1140D0393002F02920E9801910F9C049000F0B680081C00F0EF
:20565000B380101C00F0B080181C00F0AD800498002800F0A980002C00F0AB80206A002894
:2056700000F0A280564D666A281D0068002E00F09B80A16A09F022FE40B2002808BF6FF04B
:20569000020700F08D8084F82C002078618800EB80000918143188B2216A8847474908606E
:2056B00030B92846406809F005FE4FF0FF3777E08B46628823786088DBF8001025789E189F
:2056D00000EB010A701800F1040805EB450002EB4306851876186D18C01805F10C098018A9
:2056F000401800F11005204606F0F6FC2078C01C8010CAF800002078C01C8010C8F8000064
:2057100020780836C01C801030602078C01C8010C9F800002078C01C80102860227839463D
:205730000AF1040003F0C0FE2278019908F1040003F0BAFE22780299301D03F0B5FE23780A
:20575000204641463246FFF74DF8071C12D100955046414632464B4609F0A8FD47B22278A7
:20577000039809F1040103F09FFE22780498291D03F09AFE21786288DBF8000001EB810124
:205790005218002104F088FE616ADBF8000088470B48406809F08EFDF8B2992808BF0027AF
:2057B00084F82C70384606E01CB16FF0010084F82C006FF0010005B0BDE8F08F884F002058
:2057D000581F00202DE9F843614C5A4D5A4EDFF870815E4F94F8E4100846401E0B2864D8C5
:2057F000DFE800F07B2C43062343062343067664042907D001220A2945F8212C14BF022067
:20581000032004E0202045F8210C0120024684F8E200002045F8390C0827C5F8FF7FC5F837
:20583000F37F45F8392CBDE8F883052914BF09200620002784F8E400376075E094F8E17084
:20585000383D0120002FC5F81B0004BF0620002102D00021F160032084F8E400032045F86A
:20587000010C3160306880085ED294F8E4103348012703290ED0006845680021602205231D
:2058900000914046A84794F8E400062814BF0A200720CFE700684568002160220523022078
:2058B00000904046A8470420C4E7FEE72548264F0026012506600E203D6002F069FD022046
:2058D00007F0E8FB84F8E45084F8E360BDE8F883002038600C25786024E04FF08059D9F8A1
:2058F000A0010168202088472C3D0F2045F8010C41F61D56C5F80360D9F8A401466800218E
:205910004FF4C0720723022540460095B047D9F8A401C66800214FF4C07207234046B047BE
:205930000120386084F8E45004F1780009F046FABDE8F88339400C4038600C40A4010010CA
:2059500000A00C402C500C4004800C4034600C40481A00202DE9F04F88468246ADF1AC0D0F
:20597000299209F0C3FC5C4CE67894F80BB0A57A94F80C90071C00F0AB8068460021A4223D
:2059900009F052FA2801279A55498DF8046005F0030300F4807605F00405ADF800A0B9F16F
:2059B000020F01EA020143EA01024C4B8DF8A0B046EA020100F4C06603EA010246EA0200CD
:2059D00045EA00054FF00000279508BF01208DF8370009F067FC412809DB207B00280CBFAD
:2059F000002008209DF8991008438DF89900607B002804BF00208DF8380017D001208DF878
:205A1000380004F1860120220DF1390008F0FAFD0DF1590004F1A601202208F0F3FD0DF13F
:205A3000790004F1C601202208F0ECFDA07940B18DF8260004F1500110220DF1270008F0B4
:205A5000E1FD66793EB104F16000B91D0622054608F00EFB68B92079002804BF00208DF8A1
:205A7000050015D08DF8050004F140010DF106000BE08DF805600DF1060005F11601102250
:205A900008F0C0FD0DF11600A91D102208F0BAFDE07930B1B8F1000F03D0279941F00201CD
:205AB0002791002100B10121A7789DF89900002F41EA00018DF899100CBF002004209DF8B0
:205AD0009910084329998DF89900684609F0E6FB2BB0BDE8F08FC0469C160020FBF9FFFF91
:205AF000FCFEFFFF0FB42DE9F04106AF8046ADF1280D09F0CBF83E1D26F00306361D30F09D
:205B1000010001D103F0BDF8CDF81A601420ADF816000025CDF80E50FF248DF818407B68A1
:205B3000CDF81E3009F0B6FB064609F0AFF830F0010015D008F07EFC4D492A46844606203E
:205B500031F80C7F4FB14B681B689E4204D0401E02F10102F4D100E0D4B2604608F0A5FDD8
:205B7000404607F07DFA0146FF2905D0204603220DF11A0305F000FB09F08CFB07F038FC9C
:205B9000A8460446CDF8008009F080F830F0010063D00098A04260D041F2883001A907F07D
:205BB000F7FB009D002852D109F070FB0199012746186068019B41464FF00052FAF7EEFF1D
:205BD00000282BD00DF122000DF1230102AA05F089FCB0B99DF8220003A907F0F1FB38B98A
:205BF000029A09F035F800281CBF029D474615D10299684607F0D4FD60684FF0005109F05C
:205C100041FB0198B0F1FF3FD3D00028D1D009F03DFB301A02D00199814216D208F01CFBB3
:205C3000009E08F007FC083401463EB1324652F80C0C40B9206842F80C0C2660084608F0D0
:205C500034FD384603E00246F1E70190B1E720B92DB1284609F08AF801E003F012F8DDF806
:205C70001A0000680AB0BDE8F04104B07047C046A41B0020F8B5414C414B2568186855F892
:205C9000183F00224FF0FF3198473E483E4A416B3E4D88683E4E41791170002709F0EEFA29
:205CB0003C4809F0E7FA09F0E1FA3B48026800215171A02301680722CB804A7203210268E8
:205CD00011720021036859774FF4C0740268D176036883F85C10012102681177036883F861
:205CF0005D100021006880F85E100CE06868F9B2614308444079012804D1F8B208F076FD95
:205D100009F0B0FA7F1C3178F8B28842EED309F0A5FA2248224A0178117006F0D9FE09F029
:205D300099FA2049204A002008700021117001201E4A10701E4A11701E4A10701B201E4A36
:205D500011701E4A11701E4A11804FF4A4711D4A1080FB201C4A11801C4A1D49108040F6DD
:205D700048000880FB211B4A11801B4A108009F06DFA1A4900200870F2BD00BFF04E002015
:205D9000EC4E002084040100714F0020684E00207B4F0020CC470020104F00206D4F0020E2
:205DB0007A4F0020734F0020744F0020754F0020764F0020774F0020784F0020794F0020A7
:205DD000524F0020444F0020464F0020484F00204A4F00204C4F00204E4F00206F4F0020C4
:205DF00053480178042900D870472DE9F84F891F2FD0491E012900F29080DFF838A19AF8EA
:205E10000200FF2825D008F0F1FC83460BF16C07786809F017FA804698F80400032818D1DF
:205E3000D8F80800047814F0030404D17868BDE8F24F09F003BA4578032C00F102090BF2BD
:205E50000F160BD035B1387820B93D217170012030706AE038480178012966D09BF89400F9
:205E700058B32D1FEDB24B462A462146584609F0E1F940B93D20707001203070BDE8F24F66
:205E90002E4809F0D3B92E480168884706469BF80620DAF804104FF4C070424388180021A5
:205EB00080F839110BF59A7001688079490805F0FDF824490A68304690470020032CC8F82E
:205ED000080016D0204841690878820707D5C0074CBF03200020401919F8000000E08120CD
:205EF000387223469AF802002A46494609F09AF90AE00F480178082903D04946584607F07E
:205F1000D7FA484606F0C2F8786809F097F941465846BDE8F44F09F081B9002008F044FA63
:205F3000BDE8F24F862009F015BABDE8F18F00BF6F4F0020684E0020794F0020AC4500206C
:205F5000641B0020681B0020840401002DE9F04704466568A6680F46ADF1200D08F036FFA7
:205F700095F8DC10012903D109F0F8F9002085E04FF0010A85F8DCA009F0F0F938782870BE
:205F900078686860387AE860706802F019FB204606F07AF9F868676828B9A06890F814905E
:205FB00090F8158003E090F8009090F80180B9F1FF0F15D0B8F1FF0F12D0324840EA0901CC
:205FD0000491FE23069340EA080004A9059007F1980002F0F1FFC7F8A400D7F8A40070B97D
:205FF000294800240460294F3C60706802F0D0F908F0ECFE85F8DC4009F0B0F93DE0494628
:206010000D2207F00DFAD7F8A40041460E2207F007FA684608F080FC307B00946B46B168F6
:206030001B4A019005F1100006F060FC684608F0B3FC306900946A461649029005F12C00BD
:2060500006F0ECFC05F16000514607F001FC287830B905F17C00002107F0FAFB0E4868604B
:2060700000202872C5F8BC000C4AC5F8C0000421234605F1C80007F045FD204608B0BDE8C2
:20609000F087C046002000840428004010040542B16C00007DAD000037ED000039EA00007A
:2060B0002DE9FF4104466668A7680D4608F08EFE3178012903D109F051F900208AE00121E6
:2060D000317009F04BF9287870706878B07068687060A868B060E868F06028693061287D2B
:2060F0003075687D7075A87DB075A869B061287F3077687F7077A87FB0774FF00008C6F846
:206110002080C6F83080454675627563B562B56386F82C5086F82D50786802F051FA204680
:2061300003F010FA204603F059FA60B9386807F0EFFE786802F02CF908F048FE357009F036
:206150000DF92C4645E0684608F0E6FB0094387B224A0190B9686B4606F17C0006F0C6FBCB
:20617000684608F019FC00941D4938696A46029006F1980006F052FCB07830B906F1CC00D0
:20619000294607F065FB17483061707830B906F1E800294607F05CFB1348F060684608F07B
:2061B00087FD01958DF800501049029406F582700A226B4605F06CFDB969FA6906F13C0011
:2061D00008F06EFB0A4A06F168000421234607F099FC20460090BDE8FF81C04655630000A8
:2061F000859600004FED000047ED000051C20000D9EA0000F0B5514C20780D46E90BADF16F
:206210001C0DC90372D1A80860D2E069216A6A080ED2E80828BF85F0040580F08C806809EC
:2062300004D304F073F985F0100584E0002083E0868861B904F11600414A00904FF6FF71A3
:206250000223012008F0E6FF0146216221B304A800900027019702230293FF220392E28A96
:2062700030460DF11203FEF7C9F858B99DF813009DF81220216A12EB002204D04989304689
:2062900006F012F9216AE28A08463B464FF6FF7109F038F801462162A069002918BF85F001
:2062B00001051AD168B143685BB1E0698088012100229847A069E7694368B888032100220F
:2062D000984708F063F885F0010534E000200146FEF766FC18B185F00205012102E00221C3
:2062F00085F00205207801F0F3FF24E003F086FB071C1ED038780126B03811D0401E02D03E
:206310001F3808D011E0387978B97888F9883A8906F0CAF80AE03846FEF772F9064604E077
:20633000397907F10800FAF73DFC16B1384607F0AFFE85F40045A8B207B0F0BD9C1600203A
:20635000320001002DE9F84F8046D8F808603068D8F80450076CDFF830B14764AB6B6A6C21
:20637000286C17F4F06F1946A0EB020934D1F8091ED2780974D3B1B196F821205846801DF0
:20639000845C601E814294BF1C1C641E4046214607F0C1F9A86B001BA86361D105F1980028
:2063B000012108F02FFD4046494607F05FFC57E00029F8D0404607F0AEF995F82D10A863FF
:2063D00011B900284CD101E00020A86305F19800012108F017FD43E0F80A20D24FF0000A76
:2063F000544602E0AB6B5B1EAB6393B14046012107F091F93068446814F00F04C0F804A050
:20641000F0D0286B401E2863686B401E6863A86BE8B905F19800012108F0F4FC13E030685D
:2064300044680022202904F00F044260CCBF4FF0200A9A464046514607F06DF9CAF1200063
:206450008145C8BF81464946404607F00FFCEC77404604F08FFD726A12B140462146904735
:20647000B8090FD3A96A69B10F46404607F06AF9A86238B996F820205946895C4046C91952
:2064900005F01EFDBDE8F88F78FF00002DE9FC4705466E68D5F8088037780FB1B76B1FB109
:2064B0004FF0FF30BDE8FC8731630024F477171C74631BD006F13C0908F088FC82466946EF
:2064D000484606F032FA00281ED4504608F046FF9DF80000316B0870306B736B7F1E00F15F
:2064F0000100306303F101007063E5D17078726B316B0128A1EB0201316303D1F368284630
:206510009847726B144655E0B763504608F026FF08F05CFC294D0746287820B9022006F0AF
:2065300097FF01202870384608F018FFD8F80010086B40F400700863D8F80010886B40F406
:20655000FA608863707808BB716806F1E807384608F0AFF9B8B1B4633846214608F0A9F95F
:2065700088B108F033FC0746287818B1022006F091FD2C70384608F0F1FE1027716B306BA0
:20659000F777401A3063706BBDE8FC8708F01EFC96F82D1061B1716B51B1B16B41B1B4639B
:2065B00008F0DCFE06F19800012108F02BFC01E008F0D4FE2046BDE8FC87C046122E00208A
:2065D0002DE9FF47484C94F8E700002876D13E4E01273C48F57C84F8E770736884F8E650D0
:2065F0000068C4F81031C0F3801084F8E800684608F05EFB002504F10C0001956B468DF88E
:206610000050324902952A4605F042FB304904F130006B462A4605F03BFB2E4904F15400BC
:206630006B4681462A4605F033FBB16838468847DFF8B0802848327D08F104030078284EC5
:206650001868C0F3815A22B1BAF1030F04D184F8E170BAF1030F17D0BAF1020F14D0BAF1FB
:20667000010F0ED0022006F0F3FE1C480068016804208847012804D030683221B1FBF0F176
:206690000DE006F09DFA12E0022006F0E1FEBAF1030F0CBF4FF47A7142F210713068B1FBD8
:2066B000F0F1484608F088FB484608F087FB40460068C00802D2284606F0CAFE0020009072
:2066D000BDE8FF8714100940640201005FAB0000258F000011AA00001B2E0020E0010010D8
:2066F000042E0020B03F0050481A00202DE9F84F5FEA00091C46924600917DD0081C7BD041
:20671000BAF1000F78D0002C7BD0206A002873D03F4D616A281D006800296DD0A16A08F08E
:20673000CDFD40B2002808BF6FF002055FD084F82C002078618800EB400009180C3188B21D
:20675000216A88473149AB46086030B9DBF8040008F0B0FD4FF0FF3549E088466688658852
:206770002178D8F800008F192D183F1806EB41063618204605F0B0FC2078C01C8010286043
:2067900020783F1DC01C8010386020780836C01C8010306022784946281D02F085FE2846CE
